S014000030325F4C45445F426C696E6B2E737265632B
S113000080270020C1020000BD020000BD020000E4
S113001000000000000000000000000000000000DC
S1130020000000000000000000000000BD0200000D
S11300300000000000000000BD020000BD0200003E
S1130040BD020000BD020000BD020000BD020000B0
S1130050BD020000BD020000BD020000BD020000A0
S1130060BD020000BD020000BD020000BD02000090
S1130070D1030000BD020000BD020000BD0200006B
S1130080BD020000BD020000BD020000BD02000070
S1130090BD020000BD020000BD020000BD02000060
S11300A0BD020000BD020000BD020000BD02000050
S11300B00000000010B5064C2378002B07D1054B37
S11300C0002B02D0044800E000BF0123237010BDC0
S11300D03404002000000000280F0000084B10B575
S11300E0002B03D00749084800E000BF0748036815
S11300F0002B00D110BD064B002BFBD09847F9E72D
S11301000000000038040020280F0000280F000021
S113011000000000F8B5204B9847204B8022920243
S11301201A601F490A6056201A5C01210A431A54B6
S11301303B269A5D0F25AA4302273A439A5501307C
S11301401A5C0A431A549C5D0F2214402020044375
S11301509C55D024185D08431855183C185DA843D5
S1130160384318551E34185D084318551B3C185D58
S1130170A843032528431855D725585D01435955ED
S1130180195D0A4030210A431A5599688022920168
S11301900A439A60F8BDC046A5010000004400412E
S11301A014440041364A136AA0210B431362354BB1
S11301B0196A354A0A401A62196A02220A431A6203
S11301C0324A81214900916031495160314A9A8211
S11301D09A8A02210A439A822A4BDB689B07FBD541
S11301E02A4B0222FF329A602B4A5A60274B5B78D3
S11301F0DB09FBD129494A681E339A431C3B13434C
S11302004B608222D201214B5A801E4BDB68DB06F5
S1130210FBD502221B4B9A841A4BDB68DB06FBD509
S11302201F4A184BDA62174BDB68DB06FBD51D4B04
S11302301B6814498A6A9B0E9B021B4802401343A5
S11302408B62104BDB68DB06FBD50E4A938C174997
S11302500B4393840B4BDB681B06FBD5094BDB6814
S11302605B06F7D5124A094B5A60084B5B78DB09E9
S1130270FBD1064B0F4A5A800F4A5A807047C0463A
S11302800004004000080040FFFCFFFF000C004099
S1130290020609000C07000001050B0000400041A4
S11302A0B905FF7D24608000FF03FFFF06080000FE
S11302B000070B001740000019400000FEE7000093
S11302C0F8B5234A234B9A4209D0224B204A03E033
S11302D011681960043304321F498B42F8D31F4B51
S11302E002E000221A6004331D4A9342F9D31D4AE6
S11302F0FF211D4B8B439360FD3990235B001B4A08
S1130300D1501B4AD3780325AB4302242343D37033
S1130310D3780C27BB4308263343D370154B987B03
S113032030229043202210439873997BB943314380
S113033099739A7BAA4322439A730F4A5168802384
S11303400B4353600D4B98470D4B9847FEE7C0464F
S1130350280F000000000020340400203404002092
S11303607C07002000ED00E0000000000070004168
S1130370005000410048004100400041C50C00000D
S11303808503000010B50B4B9847962080010A4B5B
S113039098470A4B98470A4B9847FB2424032100AB
S11303A02020084B9847084B052221001B20074CAE
S11303B0A047FEE715010000BD0900006504000028
S11303C06D090000B9080000500400205505000024
S11303D0F8B51B4B1A781B4B1B8DDB05DB0DDBB211
S11303E019498B540A2B03D00132154B1A70F8BDEE
S11303F00132D2B20D000020144B9847144E104F16
S11304003A780132D2B2330000211B20114CA047AC
S11304103C7801342200002128000F4DA847E1B2A6
S113042030000E4B98473A780132FF213000A8473C
S113043000233B7000212020094B9847D7E7C04692
S11304405005002000140042580600208D060000CC
S113045050040020550500000D0D0000790A00002D
S1130460B9080000204BDB699B07FBD41E4B1868BE
S1130470022201009143196018681C218843103935
S1130480014319601868194901401960186818492E
S11304900140196018681749014019601868164925
S11304A00140196058681549014059601868144999
S11304B00840802149020143196058680721884394
S11304C0586018680F490140196001211973586870
S11304D0802189020143596019680A431A60024B5A
S11304E0DB699B07FBD47047001C0042FFFFFFDF62
S11304F0FFFFFFEFFFFFFFF0FFFFCFFFFFDFFFFF77
S1130500FFFFFCFFFFFFFFBF094B1B7EDB07FBD593
S1130510074A936A5B0A5B0218439062044B1B7E92
S11305205B07FBD5024B986AC005C00DC0B270478B
S1130530001C004280229201014B9A617047C04620
S11305400044004180229201014B5A617047C04629
S113055000440041F0B583B016001F00CAB26B46D8
S11305605A710B0ADBB26A469371090CC9B26B4625
S1130570D9711B2805D00B2819D003282BD00024AF
S113058042E0244B98471B20234CA0476B46D87964
S1130590C0B2A0476B469879C0B2A0476B46587961
S11305A0C0B2A047FF20A047FF20A047E7E7194BB0
S11305B098470B20184CA0476B46D879C0B2A04787
S11305C06B469879C0B2A0476B465879C0B2A04731
S11305D0FF20A047D3E70F4B984703200E4CA047BA
S11305E06B46D879C0B2A0476B469879C0B2A04791
S11305F06B465879C0B2A047C1E73D19FF20064BAE
S1130600984728700134E4B2B442F6D3034B9847B8
S113061003B0F0BD450500000905000035050000E4
S113062010B5044B98470620034B9847034B984753
S113063010BDC04645050000090500003505000051
S113064070B504000D000E4B9847012C02D0022C0B
S11306500BD070BD05200B4CA047FF20A04728708D
S1130660FF20A047084B9847F3E70520054CA04717
S1130670FF20A047FF20A0472870034B9847E8E7D6
S1130680450500000905000035050000F0B5DE460B
S113069057464E46C0B586B082460E009146804B02
S11306A0984780490120804B984703E07D49012009
S11306B07D4B98477B4B1A7803231340022BF5D1CB
S11306C00F2202AB9C466244FF23137000230E21C9
S11306D0604661440B7005AC2380534669468B71B8
S11306E08B79092565442B7053461B0ADBB2837250
S11306F053461B0CDBB20B2767443B7013782A78F4
S11307009B1A9BB201339BB22380684B984702200B
S1130710674B9B4698473878C0B2D84702AB987A63
S1130720C0B2D8472878C0B2D8474B466A46D3806F
S1130730D28823889BB29A4228D8002202AB9A71AD
S113074009E002AB9C1D9B79F05C594B98472378D8
S11307500133DBB2237002AB06331B78DBB299455D
S1130760EFD8544B98474F4901204F4B984703E02B
S11307704C4901204C4B98474A4B1B78DB07F7D474
S113078006B01CBC91469A46A346F0BD002202ABBB
S1130790DA7109E002ABDC1DDB79F05C444B98476D
S11307A023780133DBB2237002ABDA7905AB1B8803
S11307B09BB29A42EED33F4B98473A4901203A4BB9
S11307C0984703E037490120374B9847354B1B784E
S11307D0DB07F7D4324B984732490120324B984714
S11307E003E030490120304B98472E4B1A780323FD
S11307F01340022BF5D105AC23885344DAB2092502
S113080002A98C4665442A701A0AD2B28A721B0C59
S1130810DBB20B2767443B70244B98470220244BE0
S11308209A4698473878C0B2D04702AB987AC0B29B
S1130830D0472878C0B2D04723884A46D31ADBB2BF
S11308400E2202A98C4662441370002204AB1A7073
S11308500BE004AC227805AB1B889B18F05C144BAE
S1130860984723780133DBB2237004AB1A78D2B2F1
S11308700E2302A98C4663441B78DBB29A42E8D368
S11308800C4B984707490120074B984703E005495B
S11308900120054B9847034B1B78DB07F7D46FE720
S11308A02106000054060020410600004505000012
S11308B00905000035050000F0B583B004000D0003
S11308C0244B984724490120244B984703E02249AC
S11308D00120224B9847204B1A7803231340022B04
S11308E0F5D1EBB26A46561D53712B0ADBB2971D44
S11308F093712D0CEBB2D51DD371194B9847200081
S1130900184CA0472878C0B2A0473878C0B2A04796
S11309103078C0B2A047144B98470F4901200F4BC1
S1130920984703E00C4901200C4B98470A4B1B786D
S11309309B06F7D408490120084B984703E0064971
S11309400120064B9847044B1B78DB07F7D403B010
S1130950F0BDC046210600005406002041060000F8
S113096045050000090500003505000010B50D4BD4
S113097098470D4901200D4B984703E00A4901208F
S11309800A4B9847084B1A7803231340022BF5D1DE
S1130990074B98470120074CA0470020A047064B6F
S11309A0984710BD210600005406002041060000AF
S11309B045050000090500003505000070B58022DA
S11309C05201254B1A60254C226802251300AB43C3
S11309D0236022681C239A43183B13432360226834
S11309E01F4B1340236022681E4B1A4080235B0375
S11309F01343236022681C4B13402360626807235F
S1130A009A43626022688023DB05134323602268D3
S1130A10164B13402360626840239A436260144B70
S1130A201A680001101A010C00040023114EB0478B
S1130A3080B2A081626880239B0213436360626872
S1130A4080235B0213436360A37D04221343A375D5
S1130A5023681D43256070BD00E100E000140042DE
S1130A60FFFFFFEFFFFFCFFFFFFFFCFFFFFFFFF0E4
S1130A7000000020AD0A000030B50B4B1B7EDB07E5
S1130A8010D430BD084C238D855C5B0A5B022B437C
S1130A902385054B1B7E9B07FBD50132D2B28A42CC
S1130AA0F0D3EEE70022FAE700140042002B11D144
S1130AB0002A0FD1002900D1002802D00021C94307
S1130AC0081C07B4024802A14018029003BDC046A6
S1130AD09D01000003B4684601B5029800F006F8D1
S1130AE0019B9E4602B00CBC7047C046F0B5574609
S1130AF04E464546DE46E0B5040083B00D009246FE
S1130B0099468B422FD82CD04946504600F0B0F875
S1130B1029000600200000F0ABF8331A9846203B69
S1130B209B4600D574E053465A4693401F005346F3
S1130B30424693401E00AF4229D826D05B46A41BF0
S1130B40BD41002B00DA79E00022002300920193DA
S1130B5001235A4693400193012342469340009354
S1130B6019E08242D0D900220023009201930C9B09
S1130B70002B01D01C605D600098019903B03CBC5F
S1130B8090469946A246AB46F0BDA342D6D9002270
S1130B900023009201934346002BE8D0FB07720820
S1130BA01A4346467B080EE0AB4201D1A2420CD860
S1130BB0A41A9D41012024196D410021013E2418ED
S1130BC04D41002E06D0AB42EED9013E24196D41B1
S1130BD0002EF8D15B460098019900196941002B59
S1130BE022DB2B005A46D3402A004446E2401C0034
S1130BF05B461500002B2CDB26009E4033002600AC
S1130C004746BE403200801A994100900191AEE7F8
S1130C10424620239B1A5246DA40414613004A4674
S1130C208A4017001F4382E7424620239B1A2A006A
S1130C3046469A402300F3401343D5E74246202317
S1130C4000219B1A0022009101920122DA400192B4
S1130C5082E74246202326009B1ADE402F00B4463A
S1130C60974066463B003343C9E7C0467047C046D9
S1130C7010B5002903D100F007F8203002E0081C69
S1130C8000F002F810BDC0461C2101231B04984249
S1130C9001D3000C10391B0A984201D3000A083909
S1130CA01B09984201D30009043902A2105C4018C0
S1130CB07047C04604030202010101010000000064
S1130CC00000000070B50D4E0D4D0024AD1BAD109D
S1130CD005D0A300F35801349847A542F9D100F098
S1130CE00DF9084E084D0024AD1BAD1005D0A3002E
S1130CF0F35801349847A542F9D170BD080F00009C
S1130D00080F0000080F0000100F0000F0B5830763
S1130D1043D0541E002A3FD0CEB20200032502E085
S1130D201A00013C38D3531C16702B42F8D1032C03
S1130D302AD9FF220A40150215432A0415430F2C11
S1130D4014D927001A00103F3E09013636019E19B6
S1130D50156055609560D56010329642F8D10F2227
S1130D6097431037DB191440032C0DD91A00271FA1
S1130D70BE080136B6009E1920C2B242FCD103223D
S1130D8097430437DB191440002C05D0C9B21C1951
S1130D90197001339C42FBD1F0BD14000300C6E777
S1130DA0034B10B5002B02D0024800F005F810BD2B
S1130DB000000000C90D000010B50100002300224E
S1130DC0002000F01FF810BD70B5094B094CE41A5F
S1130DD0A41009D0084AA518AD00ED182B68013CF1
S1130DE09847043D002CF9D100F092F870BDC0463C
S1130DF01C0F0000200F0000FFFFFF3F7047C0469C
S1130E007047C046F0B54E464546DE465746E0B507
S1130E10364D83B00600286898460F009146FFF7C8
S1130E20EDFF334B1C68A4235B00E058002852D02C
S1130E3043681F2B13DC5A1C0192002E28D1019AFF
S1130E4002339B0042601F502868FFF7D9FF00203F
S1130E5003B03CBC90469946A246AB46F0BD254B38
S1130E60002B3DD0C820400000E000BF002837D050
S1130E70A42200235200A15843600160A0504032D4
S1130E80835004328350013301930023002ED6D0C3
S1130E909A00924682444A46882154466250C422AB
S1130EA05200914681444A468739994012688B46DC
S1130EB00A4394464A4661461160842241465200E0
S1130EC0A150022EBBD102005C468D32FF32116864
S1130ED00C431460B3E720004D30FF30E050A7E727
S1130EE02868FFF78DFF01204042B1E7300400205D
S1130EF0F80E00000000000008000020F8B5C0460D
S1130F00F8BC08BC9E467047A10D0000DD0000003F
S1130F10F8B5C046F8BC08BC9E467047B500000052
S10B0F20CCFBFF7F010000007F
S1130F28006CDC020000000000000000F402002055
S1130F385C030020C403002000000000000000003F
S1130F480000000000000000000000000000000095
S1130F580000000000000000000000000000000085
S1130F680000000000000000000000000000000075
S1130F780000000000000000000000000000000065
S1130F880000000000000000000000000000000055
S1130F980000000000000000000000000000000045
S1130FA80000000000000000000000000000000035
S1130FB80000000000000000000000000000000025
S1130FC80000000000000000000000000000000015
S1130FD801000000000000000E33CDAB34126DE6B2
S1130FE8ECDE05000B00000000000000000000001B
S1130FF800000000000000000000000000000000E5
S113100800000000000000000000000000000000D4
S113101800000000000000000000000000000000C4
S113102800000000000000000000000000000000B4
S1071358580700200E
S9030000FC
